{
  "contractName": "Casino",
  "abi": [
    {
      "constant": true,
      "inputs": [],
      "name": "minBetValue",
      "outputs": [
        {
          "name": "",
          "type": "uint256"
        }
      ],
      "payable": false,
      "type": "function"
    },
    {
      "constant": true,
      "inputs": [],
      "name": "numberOfBets",
      "outputs": [
        {
          "name": "",
          "type": "uint256"
        }
      ],
      "payable": false,
      "type": "function"
    },
    {
      "constant": false,
      "inputs": [],
      "name": "kill",
      "outputs": [],
      "payable": false,
      "type": "function"
    },
    {
      "constant": true,
      "inputs": [
        {
          "name": "",
          "type": "address"
        }
      ],
      "name": "playerInfo",
      "outputs": [
        {
          "name": "amountBet",
          "type": "uint256"
        },
        {
          "name": "numberSelected",
          "type": "uint256"
        }
      ],
      "payable": false,
      "type": "function"
    },
    {
      "constant": false,
      "inputs": [
        {
          "name": "_guess",
          "type": "uint256"
        }
      ],
      "name": "bet",
      "outputs": [],
      "payable": true,
      "type": "function"
    },
    {
      "constant": true,
      "inputs": [],
      "name": "maxBetValue",
      "outputs": [
        {
          "name": "",
          "type": "uint256"
        }
      ],
      "payable": false,
      "type": "function"
    },
    {
      "constant": true,
      "inputs": [],
      "name": "minimumBet",
      "outputs": [
        {
          "name": "",
          "type": "uint256"
        }
      ],
      "payable": false,
      "type": "function"
    },
    {
      "constant": true,
      "inputs": [],
      "name": "maxAmountOfBets",
      "outputs": [
        {
          "name": "",
          "type": "uint256"
        }
      ],
      "payable": false,
      "type": "function"
    },
    {
      "constant": true,
      "inputs": [],
      "name": "totalBet",
      "outputs": [
        {
          "name": "",
          "type": "uint256"
        }
      ],
      "payable": false,
      "type": "function"
    },
    {
      "inputs": [
        {
          "name": "_minimumBet",
          "type": "uint256"
        },
        {
          "name": "_maxAmountOfBets",
          "type": "uint256"
        }
      ],
      "payable": false,
      "type": "constructor"
    },
    {
      "payable": true,
      "type": "fallback"
    }
  ],
  "bytecode": "0x6060604052600560045560016005556005600655341561001e57600080fd5b60405160408061064b83398101604052808051919060200180519150505b60008054600160a060020a03191633600160a060020a031617905581156100635760018290555b801561006f5760048190555b5b50505b6105c9806100826000396000f300606060405236156100965763ffffffff7c0100000000000000000000000000000000000000000000000000000000600035041663116c6fb2811461009a5780632ca8c6d3146100bf57806341c0e1b5146100e45780634b114691146100f95780637365870b1461013057806376f084d81461013d578063c38a8afd14610162578063e08a96cd14610187578063fe5e1853146101ac575b5b5b005b34156100a557600080fd5b6100ad6101d1565b60405190815260200160405180910390f35b34156100ca57600080fd5b6100ad6101d7565b60405190815260200160405180910390f35b34156100ef57600080fd5b6100966101dd565b005b341561010457600080fd5b610118600160a060020a0360043516610208565b60405191825260208201526040908101905180910390f35b610096600435610221565b005b341561014857600080fd5b6100ad6102ee565b60405190815260200160405180910390f35b341561016d57600080fd5b6100ad6102f4565b60405190815260200160405180910390f35b341561019257600080fd5b6100ad6102fa565b60405190815260200160405180910390f35b34156101b757600080fd5b6100ad610300565b60405190815260200160405180910390f35b60055481565b60035481565b60005433600160a060020a039081169116146101f857600080fd5b600054600160a060020a0316ff5b565b6008602052600090815260409020805460019091015482565b61022a33610306565b151560011461023857600080fd5b6001811015801561024a575060058111155b151561025557600080fd5b60015434101561026457600080fd5b600160a060020a03331660009081526008602052604090203481556001908101829055600380548201905560078054909181016102a183826104ff565b916000526020600020900160005b8154600160a060020a033381166101009390930a92830292021916179055506002805434019055600454600354106102e9576102e9610379565b5b5b50565b60065481565b60015481565b60045481565b60025481565b6000805b60075481101561036e5782600160a060020a031660078281548110151561032d57fe5b906000526020600020900160005b9054906101000a9004600160a060020a0316600160a060020a031614156103655760009150610373565b5b60010161030a565b600191505b50919050565b60006005435b0660010190506102e981610392565b5b50565b61039a610529565b6000808080805b6007548410156104495760078054859081106103b957fe5b906000526020600020900160005b9054600160a060020a036101009290920a90041660008181526008602052604090206001015490935087141561041e578286866064811061040457fe5b600160a060020a0390921660209290920201526001909401935b600160a060020a0383166000908152600860205260408120818155600101555b6001909301926103a1565b8460025481151561045657fe5b049150600090505b848110156104d257600086826064811061047457fe5b6020020151600160a060020a0316146104c85785816064811061049357fe5b6020020151600160a060020a031682156108fc0283604051600060405180830381858888f1935050505015156104c857600080fd5b5b5b60010161045e565b6104da6104e4565b5b50505050505050565b60006104f16007826104ff565b50600060028190556003555b565b8154818355818115116105235760008381526020902061052391810190830161057c565b5b505050565b610c806040519081016040526064815b6000815260001990910190602001816105395790505090565b8154818355818115116105235760008381526020902061052391810190830161057c565b5b505050565b61059a91905b808211156105965760008155600101610582565b5090565b905600a165627a7a723058202e8299f378a22fa1c7f81089f3779a264d934efa7a441da1992d94c14625d2cb0029",
  "source": "pragma solidity ^0.4.11;\n\ncontract Casino {\n    address owner;\n\n    uint public minimumBet;\n    uint public totalBet;\n    uint public numberOfBets;\n    uint public maxAmountOfBets = 5;\n    uint public minBetValue = 1;\n    uint public maxBetValue = 5;\n    address[] players;\n\n    struct Player {\n        uint amountBet;\n        uint numberSelected;\n    }\n\n    mapping(address => Player) public playerInfo;\n\n    function Casino(uint _minimumBet, uint _maxAmountOfBets) public {\n        owner = msg.sender;\n\n        if (_minimumBet != 0)\n            minimumBet = _minimumBet;\n\n        if (_maxAmountOfBets != 0)\n            maxAmountOfBets = _maxAmountOfBets;\n    }\n\n    function bet(uint _guess) payable public {\n        require(isNewPlayer(msg.sender) == true);\n        require(_guess >= 1 && _guess <= 5);\n        require(msg.value >= minimumBet);\n\n        playerInfo[msg.sender].amountBet = msg.value;\n        playerInfo[msg.sender].numberSelected = _guess;\n        numberOfBets += 1;\n        players.push(msg.sender);\n        totalBet += msg.value;\n\n        if (numberOfBets >= maxAmountOfBets)\n            generateNumberWinner();\n    }\n\n    // function allNumbersOccupied() private constant returns (bool) {\n    //     uint[10] memory occupiedNumbers;\n\n    //     for (uint i = 0; i < players.length; i++) {\n    //         occupiedNumbers[i] = players[i].numberSelected;\n    //     }\n    // }\n\n    function isNewPlayer(address _player) private constant returns(bool) {\n        for (uint i = 0; i < players.length; i++) {\n            if (players[i] == _player)\n                return false;\n        }\n\n        return true;\n    }\n\n    function generateNumberWinner() private {\n        uint numberGenerated = block.number % 5 + 1;\n\n        distributePrizes(numberGenerated);\n    }\n\n    function distributePrizes(uint _winningNumber) private {\n        address[100] memory winners;\n        uint count = 0;\n\n        for (uint i = 0; i < players.length; i++) {\n            address playerAddress = players[i];\n            if (playerInfo[playerAddress].numberSelected == _winningNumber) {\n                winners[count] = playerAddress;\n                count++;\n            }\n            delete playerInfo[playerAddress];\n        }\n\n        uint winnerEtherAmount = totalBet / count;\n\n        for (uint j = 0; j < count; j++) {\n            if (winners[j] != address(0)) {\n                winners[j].transfer(winnerEtherAmount);\n            }\n        }\n\n        resetData();\n    }\n\n    function resetData() private {\n        players.length = 0;\n        totalBet = 0;\n        numberOfBets = 0;\n    }\n\n    function kill() public {\n        require(msg.sender == owner);\n\n        selfdestruct(owner);\n    }\n\n    function () payable public {}\n}\n",
  "sourcePath": "/Users/gm-alex/dev/casino-ethereum/contracts/Casino.sol",
  "schemaVersion": "1.0.0",
  "updatedAt": "2017-10-03T16:39:47.995Z"
}